:020000040000FA
:10000000200EAC6E190EAF6E949CAB8EF00E936EFC
:1000100000000F0E8112000000008150F00B206ED6
:100020000F0E936E0000F00E811200000000815050
:100030000F0B2012000E246E040E256E800E276E0C
:10004000080E286E2746040E266E284628502710D4
:10005000296E2014295C02E13BEC00F0242A285090
:10006000800802E1080E286E2606EFE12506EAE187
:1000700041EC00F0CBD7410E24249EA8FED7AD6EF4
:100080001200030E216EFF0E226EFF0E236E000083
:1000900000002306FCE12206F8E12106F4E112004B
:0200A00000005E
:020000040030CA
:0100010022DC
:010002000CF1
:010003000EEE
:010006008079
:00000001FF
