:020000040000FA
:10000000200EAC6E190EAF6E949CAB8EF00E936EFC
:1000100000000F0E8112000000008150F00B256ED1
:100020000F0E936E0000F00E811200000000815050
:100030000F0B2512110E2514110803E1410E8EEC51
:1000400000F0210E2514210803E1420E8EEC00F091
:10005000410E2514410803E1430E8EEC00F0810EA1
:100060002514810803E1440E8EEC00F0120E2514D5
:10007000120803E1450E8EEC00F0220E2514220832
:1000800003E1460E8EEC00F0420E2514420803E117
:10009000470E8EEC00F0820E2514820803E1480E14
:1000A0008EEC00F0140E2514140803E1490E8EECBA
:1000B00000F0240E2514240803E14A0E8EEC00F013
:1000C000440E2514440803E14B0E8EEC00F0840E20
:1000D0002514840803E14C0E8EEC00F0180E251454
:1000E000180803E14D0E8EEC00F0280E25142808A8
:1000F00003E14E0E8EEC00F0480E2514480803E193
:100100004F0E8EEC00F0880E2514880803E1500E87
:100110008EEC00F092EC00F006EF00F09EA8FED707
:10012000AD6E1200030E266EFF0E276EFF0E286EB8
:10013000000000002806FCE12706F8E12606F4E1AD
:020140001200AB
:020142000000BB
:020000040030CA
:0100010022DC
:010002000CF1
:010003000EEE
:010006008079
:00000001FF
