:020000040000FA
:10000000200EAC6E190EAF6E949CAB8EF00E936EFC
:1000100000000F0E8112000000008150F00B256ED1
:100020000F0E936E0000F00E811200000000815050
:100030000F0B2512110E256203D0410E7EEC00F04D
:10004000210E256203D0420E7EEC00F0410E2562A7
:1000500003D0430E7EEC00F0810E256203D0440EE7
:100060007EEC00F0120E256203D0450E7EEC00F00F
:10007000220E256203D0460E7EEC00F0420E256271
:1000800003D0470E7EEC00F0820E256203D0480EAE
:100090007EEC00F0140E256203D0490E7EEC00F0D9
:1000A000240E256203D04A0E7EEC00F0440E256239
:1000B00003D04B0E7EEC00F0840E256203D04C0E74
:1000C0007EEC00F0180E256203D04D0E7EEC00F0A1
:1000D000280E256203D04E0E7EEC00F0480E2562FD
:1000E00003D04F0E7EEC00F0880E256203D0500E38
:1000F0007EEC00F082EC00F006EF00F09EA8FED748
:10010000AD6E1200030E266EFF0E276EFF0E286ED8
:10011000000000002806FCE12706F8E12606F4E1CD
:020120001200CB
:020000040030CA
:03000100220C0EC0
:02000500018078
:060008000FC00FE00F40E5
:00000001FF
